{
  "_format": "hh-sol-artifact-1",
  "contractName": "StandardPack",
  "sourceName": "contracts/StandardPack.sol",
  "abi": [
    {
      "inputs": [
        {
          "internalType": "string",
          "name": "name",
          "type": "string"
        },
        {
          "internalType": "string",
          "name": "symbol",
          "type": "string"
        }
      ],
      "stateMutability": "nonpayable",
      "type": "constructor"
    },
    {
      "anonymous": false,
      "inputs": [
        {
          "indexed": true,
          "internalType": "address",
          "name": "account",
          "type": "address"
        },
        {
          "indexed": true,
          "internalType": "address",
          "name": "operator",
          "type": "address"
        },
        {
          "indexed": false,
          "internalType": "bool",
          "name": "approved",
          "type": "bool"
        }
      ],
      "name": "ApprovalForAll",
      "type": "event"
    },
    {
      "anonymous": false,
      "inputs": [
        {
          "indexed": true,
          "internalType": "address",
          "name": "previousOwner",
          "type": "address"
        },
        {
          "indexed": true,
          "internalType": "address",
          "name": "newOwner",
          "type": "address"
        }
      ],
      "name": "OwnershipTransferred",
      "type": "event"
    },
    {
      "anonymous": false,
      "inputs": [
        {
          "indexed": true,
          "internalType": "address",
          "name": "operator",
          "type": "address"
        },
        {
          "indexed": true,
          "internalType": "address",
          "name": "from",
          "type": "address"
        },
        {
          "indexed": true,
          "internalType": "address",
          "name": "to",
          "type": "address"
        },
        {
          "indexed": false,
          "internalType": "uint256[]",
          "name": "ids",
          "type": "uint256[]"
        },
        {
          "indexed": false,
          "internalType": "uint256[]",
          "name": "values",
          "type": "uint256[]"
        }
      ],
      "name": "TransferBatch",
      "type": "event"
    },
    {
      "anonymous": false,
      "inputs": [
        {
          "indexed": true,
          "internalType": "address",
          "name": "operator",
          "type": "address"
        },
        {
          "indexed": true,
          "internalType": "address",
          "name": "from",
          "type": "address"
        },
        {
          "indexed": true,
          "internalType": "address",
          "name": "to",
          "type": "address"
        },
        {
          "indexed": false,
          "internalType": "uint256",
          "name": "id",
          "type": "uint256"
        },
        {
          "indexed": false,
          "internalType": "uint256",
          "name": "value",
          "type": "uint256"
        }
      ],
      "name": "TransferSingle",
      "type": "event"
    },
    {
      "anonymous": false,
      "inputs": [
        {
          "indexed": false,
          "internalType": "string",
          "name": "value",
          "type": "string"
        },
        {
          "indexed": true,
          "internalType": "uint256",
          "name": "id",
          "type": "uint256"
        }
      ],
      "name": "URI",
      "type": "event"
    },
    {
      "inputs": [
        {
          "internalType": "address",
          "name": "account",
          "type": "address"
        },
        {
          "internalType": "uint256",
          "name": "id",
          "type": "uint256"
        }
      ],
      "name": "balanceOf",
      "outputs": [
        {
          "internalType": "uint256",
          "name": "",
          "type": "uint256"
        }
      ],
      "stateMutability": "view",
      "type": "function"
    },
    {
      "inputs": [
        {
          "internalType": "address[]",
          "name": "accounts",
          "type": "address[]"
        },
        {
          "internalType": "uint256[]",
          "name": "ids",
          "type": "uint256[]"
        }
      ],
      "name": "balanceOfBatch",
      "outputs": [
        {
          "internalType": "uint256[]",
          "name": "",
          "type": "uint256[]"
        }
      ],
      "stateMutability": "view",
      "type": "function"
    },
    {
      "inputs": [],
      "name": "createPackage",
      "outputs": [
        {
          "internalType": "uint256",
          "name": "",
          "type": "uint256"
        }
      ],
      "stateMutability": "payable",
      "type": "function"
    },
    {
      "inputs": [
        {
          "internalType": "address",
          "name": "account",
          "type": "address"
        },
        {
          "internalType": "address",
          "name": "operator",
          "type": "address"
        }
      ],
      "name": "isApprovedForAll",
      "outputs": [
        {
          "internalType": "bool",
          "name": "",
          "type": "bool"
        }
      ],
      "stateMutability": "view",
      "type": "function"
    },
    {
      "inputs": [],
      "name": "owner",
      "outputs": [
        {
          "internalType": "address",
          "name": "",
          "type": "address"
        }
      ],
      "stateMutability": "view",
      "type": "function"
    },
    {
      "inputs": [],
      "name": "renounceOwnership",
      "outputs": [],
      "stateMutability": "nonpayable",
      "type": "function"
    },
    {
      "inputs": [
        {
          "internalType": "address",
          "name": "from",
          "type": "address"
        },
        {
          "internalType": "address",
          "name": "to",
          "type": "address"
        },
        {
          "internalType": "uint256[]",
          "name": "ids",
          "type": "uint256[]"
        },
        {
          "internalType": "uint256[]",
          "name": "amounts",
          "type": "uint256[]"
        },
        {
          "internalType": "bytes",
          "name": "data",
          "type": "bytes"
        }
      ],
      "name": "safeBatchTransferFrom",
      "outputs": [],
      "stateMutability": "nonpayable",
      "type": "function"
    },
    {
      "inputs": [
        {
          "internalType": "address",
          "name": "from",
          "type": "address"
        },
        {
          "internalType": "address",
          "name": "to",
          "type": "address"
        },
        {
          "internalType": "uint256",
          "name": "id",
          "type": "uint256"
        },
        {
          "internalType": "uint256",
          "name": "amount",
          "type": "uint256"
        },
        {
          "internalType": "bytes",
          "name": "data",
          "type": "bytes"
        }
      ],
      "name": "safeTransferFrom",
      "outputs": [],
      "stateMutability": "nonpayable",
      "type": "function"
    },
    {
      "inputs": [
        {
          "internalType": "address",
          "name": "operator",
          "type": "address"
        },
        {
          "internalType": "bool",
          "name": "approved",
          "type": "bool"
        }
      ],
      "name": "setApprovalForAll",
      "outputs": [],
      "stateMutability": "nonpayable",
      "type": "function"
    },
    {
      "inputs": [
        {
          "internalType": "bytes4",
          "name": "interfaceId",
          "type": "bytes4"
        }
      ],
      "name": "supportsInterface",
      "outputs": [
        {
          "internalType": "bool",
          "name": "",
          "type": "bool"
        }
      ],
      "stateMutability": "view",
      "type": "function"
    },
    {
      "inputs": [
        {
          "internalType": "uint256",
          "name": "amount",
          "type": "uint256"
        },
        {
          "internalType": "address payable",
          "name": "destAddr",
          "type": "address"
        }
      ],
      "name": "transferMatic",
      "outputs": [],
      "stateMutability": "payable",
      "type": "function"
    },
    {
      "inputs": [
        {
          "internalType": "address",
          "name": "newOwner",
          "type": "address"
        }
      ],
      "name": "transferOwnership",
      "outputs": [],
      "stateMutability": "nonpayable",
      "type": "function"
    },
    {
      "inputs": [
        {
          "internalType": "uint256",
          "name": "",
          "type": "uint256"
        }
      ],
      "name": "uri",
      "outputs": [
        {
          "internalType": "string",
          "name": "",
          "type": "string"
        }
      ],
      "stateMutability": "view",
      "type": "function"
    }
  ],
  "bytecode": "0x608060405260006006556040518060600160405280603581526020016200379160359139600890805190602001906200003a929190620001c8565b503480156200004857600080fd5b50604051620037c6380380620037c683398181016040528101906200006e9190620002ea565b6040518060400160405280601481526020017f5374616e64617264205061636b61676520435441000000000000000000000000815250620000b581620000de60201b60201c565b50620000d6620000ca620000fa60201b60201c565b6200010260201b60201c565b5050620004cd565b8060029080519060200190620000f6929190620001c8565b5050565b600033905090565b6000600360009054906101000a900473ffffffffffffffffffffffffffffffffffffffff16905081600360006101000a81548173ffffffffffffffffffffffffffffffffffffffff021916908373ffffffffffffffffffffffffffffffffffffffff1602179055508173ffffffffffffffffffffffffffffffffffffffff168173ffffffffffffffffffffffffffffffffffffffff167f8be0079c531659141344cd1fd0a4f28419497f9722a3daafe3b4186f6b6457e060405160405180910390a35050565b828054620001d690620003f2565b90600052602060002090601f016020900481019282620001fa576000855562000246565b82601f106200021557805160ff191683800117855562000246565b8280016001018555821562000246579182015b828111156200024557825182559160200191906001019062000228565b5b50905062000255919062000259565b5090565b5b80821115620002745760008160009055506001016200025a565b5090565b60006200028f620002898462000386565b6200035d565b905082815260208101848484011115620002a857600080fd5b620002b5848285620003bc565b509392505050565b600082601f830112620002cf57600080fd5b8151620002e184826020860162000278565b91505092915050565b60008060408385031215620002fe57600080fd5b600083015167ffffffffffffffff8111156200031957600080fd5b6200032785828601620002bd565b925050602083015167ffffffffffffffff8111156200034557600080fd5b6200035385828601620002bd565b9150509250929050565b6000620003696200037c565b905062000377828262000428565b919050565b6000604051905090565b600067ffffffffffffffff821115620003a457620003a36200048d565b5b620003af82620004bc565b9050602081019050919050565b60005b83811015620003dc578082015181840152602081019050620003bf565b83811115620003ec576000848401525b50505050565b600060028204905060018216806200040b57607f821691505b602082108114156200042257620004216200045e565b5b50919050565b6200043382620004bc565b810181811067ffffffffffffffff821117156200045557620004546200048d565b5b80604052505050565b7f4e487b7100000000000000000000000000000000000000000000000000000000600052602260045260246000fd5b7f4e487b7100000000000000000000000000000000000000000000000000000000600052604160045260246000fd5b6000601f19601f8301169050919050565b6132b480620004dd6000396000f3fe6080604052600436106100c15760003560e01c8063715018a61161007f578063a22cb46511610059578063a22cb4651461025f578063e985e9c514610288578063f242432a146102c5578063f2fde38b146102ee576100c1565b8063715018a6146102015780638da5cb5b146102185780639a47224214610243576100c1565b8062fdd58e146100c657806301ffc9a7146101035780630e89341c146101405780632eb2c2d61461017d5780634e1273f4146101a657806355a7780c146101e3575b600080fd5b3480156100d257600080fd5b506100ed60048036038101906100e8919061207d565b610317565b6040516100fa91906128a3565b60405180910390f35b34801561010f57600080fd5b5061012a60048036038101906101259190612125565b6103e0565b6040516101379190612666565b60405180910390f35b34801561014c57600080fd5b5061016760048036038101906101629190612177565b6104c2565b6040516101749190612681565b60405180910390f35b34801561018957600080fd5b506101a4600480360381019061019f9190611ef3565b610556565b005b3480156101b257600080fd5b506101cd60048036038101906101c891906120b9565b6105f7565b6040516101da919061260d565b60405180910390f35b6101eb6107a8565b6040516101f891906128a3565b60405180910390f35b34801561020d57600080fd5b506102166109cc565b005b34801561022457600080fd5b5061022d610a54565b60405161023a9190612530565b60405180910390f35b61025d600480360381019061025891906121a0565b610a7e565b005b34801561026b57600080fd5b5061028660048036038101906102819190612041565b610b39565b005b34801561029457600080fd5b506102af60048036038101906102aa9190611eb7565b610b4f565b6040516102bc9190612666565b60405180910390f35b3480156102d157600080fd5b506102ec60048036038101906102e79190611fb2565b610be3565b005b3480156102fa57600080fd5b5061031560048036038101906103109190611e8e565b610c84565b005b60008073ffffffffffffffffffffffffffffffffffffffff168373ffffffffffffffffffffffffffffffffffffffff161415610388576040517f08c379a000000000000000000000000000000000000000000000000000000000815260040161037f90612703565b60405180910390fd5b60008083815260200190815260200160002060008473ffffffffffffffffffffffffffffffffffffffff1673ffffffffffffffffffffffffffffffffffffffff16815260200190815260200160002054905092915050565b60007fd9b67a26000000000000000000000000000000000000000000000000000000007bffffffffffffffffffffffffffffffffffffffffffffffffffffffff1916827bffffffffffffffffffffffffffffffffffffffffffffffffffffffff191614806104ab57507f0e89341c000000000000000000000000000000000000000000000000000000007bffffffffffffffffffffffffffffffffffffffffffffffffffffffff1916827bffffffffffffffffffffffffffffffffffffffffffffffffffffffff1916145b806104bb57506104ba82610d7c565b5b9050919050565b6060600280546104d190612b58565b80601f01602080910402602001604051908101604052809291908181526020018280546104fd90612b58565b801561054a5780601f1061051f5761010080835404028352916020019161054a565b820191906000526020600020905b81548152906001019060200180831161052d57829003601f168201915b50505050509050919050565b61055e610de6565b73ffffffffffffffffffffffffffffffffffffffff168573ffffffffffffffffffffffffffffffffffffffff1614806105a457506105a38561059e610de6565b610b4f565b5b6105e3576040517f08c379a00000000000000000000000000000000000000000000000000000000081526004016105da906127a3565b60405180910390fd5b6105f08585858585610dee565b5050505050565b6060815183511461063d576040517f08c379a000000000000000000000000000000000000000000000000000000000815260040161063490612843565b60405180910390fd5b6000835167ffffffffffffffff811115610680577f4e487b7100000000000000000000000000000000000000000000000000000000600052604160045260246000fd5b6040519080825280602002602001820160405280156106ae5781602001602082028036833780820191505090505b50905060005b845181101561079d576107478582815181106106f9577f4e487b7100000000000000000000000000000000000000000000000000000000600052603260045260246000fd5b602002602001015185838151811061073a577f4e487b7100000000000000000000000000000000000000000000000000000000600052603260045260246000fd5b6020026020010151610317565b828281518110610780577f4e487b7100000000000000000000000000000000000000000000000000000000600052603260045260246000fd5b6020026020010181815250508061079690612bbb565b90506106b4565b508091505092915050565b60006107b2610de6565b73ffffffffffffffffffffffffffffffffffffffff166107d0610a54565b73ffffffffffffffffffffffffffffffffffffffff1614610826576040517f08c379a000000000000000000000000000000000000000000000000000000000815260040161081d906127e3565b60405180910390fd5b600560003373ffffffffffffffffffffffffffffffffffffffff1673ffffffffffffffffffffffffffffffffffffffff16815260200190815260200160002060009054906101000a900460ff16156108b3576040517f08c379a00000000000000000000000000000000000000000000000000000000081526004016108aa906126e3565b60405180910390fd5b6107d0600654106108f9576040517f08c379a00000000000000000000000000000000000000000000000000000000081526004016108f090612803565b60405180910390fd5b6000610905600461114e565b9050610923338260016040518060200160405280600081525061115c565b6006600081548092919061093690612bbb565b919050555061094560046112f2565b6001600560003373ffffffffffffffffffffffffffffffffffffffff1673ffffffffffffffffffffffffffffffffffffffff16815260200190815260200160002060006101000a81548160ff0219169083151502179055506109a8600133610a7e565b6109c5303383600160405180602001604052806000815250611308565b8091505090565b6109d4610de6565b73ffffffffffffffffffffffffffffffffffffffff166109f2610a54565b73ffffffffffffffffffffffffffffffffffffffff1614610a48576040517f08c379a0000000000000000000000000000000000000000000000000000000008152600401610a3f906127e3565b60405180910390fd5b610a52600061158a565b565b6000600360009054906101000a900473ffffffffffffffffffffffffffffffffffffffff16905090565b34600754610a8c9190612a06565b60078190555034821115610ad5576040517f08c379a0000000000000000000000000000000000000000000000000000000008152600401610acc90612723565b60405180910390fd5b8073ffffffffffffffffffffffffffffffffffffffff166108fc839081150290604051600060405180830381858888f19350505050158015610b1b573d6000803e3d6000fd5b508160076000828254610b2e9190612a5c565b925050819055505050565b610b4b610b44610de6565b8383611650565b5050565b6000600160008473ffffffffffffffffffffffffffffffffffffffff1673ffffffffffffffffffffffffffffffffffffffff16815260200190815260200160002060008373ffffffffffffffffffffffffffffffffffffffff1673ffffffffffffffffffffffffffffffffffffffff16815260200190815260200160002060009054906101000a900460ff16905092915050565b610beb610de6565b73ffffffffffffffffffffffffffffffffffffffff168573ffffffffffffffffffffffffffffffffffffffff161480610c315750610c3085610c2b610de6565b610b4f565b5b610c70576040517f08c379a0000000000000000000000000000000000000000000000000000000008152600401610c6790612763565b60405180910390fd5b610c7d8585858585611308565b5050505050565b610c8c610de6565b73ffffffffffffffffffffffffffffffffffffffff16610caa610a54565b73ffffffffffffffffffffffffffffffffffffffff1614610d00576040517f08c379a0000000000000000000000000000000000000000000000000000000008152600401610cf7906127e3565b60405180910390fd5b600073ffffffffffffffffffffffffffffffffffffffff168173ffffffffffffffffffffffffffffffffffffffff161415610d70576040517f08c379a0000000000000000000000000000000000000000000000000000000008152600401610d6790612743565b60405180910390fd5b610d798161158a565b50565b60007f01ffc9a7000000000000000000000000000000000000000000000000000000007bffffffffffffffffffffffffffffffffffffffffffffffffffffffff1916827bffffffffffffffffffffffffffffffffffffffffffffffffffffffff1916149050919050565b600033905090565b8151835114610e32576040517f08c379a0000000000000000000000000000000000000000000000000000000008152600401610e2990612863565b60405180910390fd5b600073ffffffffffffffffffffffffffffffffffffffff168473ffffffffffffffffffffffffffffffffffffffff161415610ea2576040517f08c379a0000000000000000000000000000000000000000000000000000000008152600401610e9990612783565b60405180910390fd5b6000610eac610de6565b9050610ebc8187878787876117bd565b60005b84518110156110b9576000858281518110610f03577f4e487b7100000000000000000000000000000000000000000000000000000000600052603260045260246000fd5b602002602001015190506000858381518110610f48577f4e487b7100000000000000000000000000000000000000000000000000000000600052603260045260246000fd5b60200260200101519050600080600084815260200190815260200160002060008b73ffffffffffffffffffffffffffffffffffffffff1673ffffffffffffffffffffffffffffffffffffffff16815260200190815260200160002054905081811015610fe9576040517f08c379a0000000000000000000000000000000000000000000000000000000008152600401610fe0906127c3565b60405180910390fd5b81810360008085815260200190815260200160002060008c73ffffffffffffffffffffffffffffffffffffffff1673ffffffffffffffffffffffffffffffffffffffff168152602001908152602001600020819055508160008085815260200190815260200160002060008b73ffffffffffffffffffffffffffffffffffffffff1673ffffffffffffffffffffffffffffffffffffffff168152602001908152602001600020600082825461109e9190612a06565b92505081905550505050806110b290612bbb565b9050610ebf565b508473ffffffffffffffffffffffffffffffffffffffff168673ffffffffffffffffffffffffffffffffffffffff168273ffffffffffffffffffffffffffffffffffffffff167f4a39dc06d4c0dbc64b70af90fd698a233a518aa5d07e595d983b8c0526c8f7fb878760405161113092919061262f565b60405180910390a46111468187878787876117c5565b505050505050565b600081600001549050919050565b600073ffffffffffffffffffffffffffffffffffffffff168473ffffffffffffffffffffffffffffffffffffffff1614156111cc576040517f08c379a00000000000000000000000000000000000000000000000000000000081526004016111c390612883565b60405180910390fd5b60006111d6610de6565b90506111f7816000876111e8886119ac565b6111f1886119ac565b876117bd565b8260008086815260200190815260200160002060008773ffffffffffffffffffffffffffffffffffffffff1673ffffffffffffffffffffffffffffffffffffffff16815260200190815260200160002060008282546112569190612a06565b925050819055508473ffffffffffffffffffffffffffffffffffffffff16600073ffffffffffffffffffffffffffffffffffffffff168273ffffffffffffffffffffffffffffffffffffffff167fc3d58168c5ae7397731d063d5bbf3d657854427343f4c083240f7aacaa2d0f6287876040516112d49291906128be565b60405180910390a46112eb81600087878787611a72565b5050505050565b6001816000016000828254019250508190555050565b600073ffffffffffffffffffffffffffffffffffffffff168473ffffffffffffffffffffffffffffffffffffffff161415611378576040517f08c379a000000000000000000000000000000000000000000000000000000000815260040161136f90612783565b60405180910390fd5b6000611382610de6565b90506113a2818787611393886119ac565b61139c886119ac565b876117bd565b600080600086815260200190815260200160002060008873ffffffffffffffffffffffffffffffffffffffff1673ffffffffffffffffffffffffffffffffffffffff16815260200190815260200160002054905083811015611439576040517f08c379a0000000000000000000000000000000000000000000000000000000008152600401611430906127c3565b60405180910390fd5b83810360008087815260200190815260200160002060008973ffffffffffffffffffffffffffffffffffffffff1673ffffffffffffffffffffffffffffffffffffffff168152602001908152602001600020819055508360008087815260200190815260200160002060008873ffffffffffffffffffffffffffffffffffffffff1673ffffffffffffffffffffffffffffffffffffffff16815260200190815260200160002060008282546114ee9190612a06565b925050819055508573ffffffffffffffffffffffffffffffffffffffff168773ffffffffffffffffffffffffffffffffffffffff168373ffffffffffffffffffffffffffffffffffffffff167fc3d58168c5ae7397731d063d5bbf3d657854427343f4c083240f7aacaa2d0f62888860405161156b9291906128be565b60405180910390a4611581828888888888611a72565b50505050505050565b6000600360009054906101000a900473ffffffffffffffffffffffffffffffffffffffff16905081600360006101000a81548173ffffffffffffffffffffffffffffffffffffffff021916908373ffffffffffffffffffffffffffffffffffffffff1602179055508173ffffffffffffffffffffffffffffffffffffffff168173ffffffffffffffffffffffffffffffffffffffff167f8be0079c531659141344cd1fd0a4f28419497f9722a3daafe3b4186f6b6457e060405160405180910390a35050565b8173ffffffffffffffffffffffffffffffffffffffff168373ffffffffffffffffffffffffffffffffffffffff1614156116bf576040517f08c379a00000000000000000000000000000000000000000000000000000000081526004016116b690612823565b60405180910390fd5b80600160008573ffffffffffffffffffffffffffffffffffffffff1673ffffffffffffffffffffffffffffffffffffffff16815260200190815260200160002060008473ffffffffffffffffffffffffffffffffffffffff1673ffffffffffffffffffffffffffffffffffffffff16815260200190815260200160002060006101000a81548160ff0219169083151502179055508173ffffffffffffffffffffffffffffffffffffffff168373ffffffffffffffffffffffffffffffffffffffff167f17307eab39ab6107e8899845ad3d59bd9653f200f220920489ca2b5937696c31836040516117b09190612666565b60405180910390a3505050565b505050505050565b6117e48473ffffffffffffffffffffffffffffffffffffffff16611c59565b156119a4578373ffffffffffffffffffffffffffffffffffffffff1663bc197c8187878686866040518663ffffffff1660e01b815260040161182a95949392919061254b565b602060405180830381600087803b15801561184457600080fd5b505af192505050801561187557506040513d601f19601f82011682018060405250810190611872919061214e565b60015b61191b57611881612c91565b806308c379a014156118de5750611896613175565b806118a157506118e0565b806040517f08c379a00000000000000000000000000000000000000000000000000000000081526004016118d59190612681565b60405180910390fd5b505b6040517f08c379a0000000000000000000000000000000000000000000000000000000008152600401611912906126a3565b60405180910390fd5b63bc197c8160e01b7bffffffffffffffffffffffffffffffffffffffffffffffffffffffff1916817bffffffffffffffffffffffffffffffffffffffffffffffffffffffff1916146119a2576040517f08c379a0000000000000000000000000000000000000000000000000000000008152600401611999906126c3565b60405180910390fd5b505b505050505050565b60606000600167ffffffffffffffff8111156119f1577f4e487b7100000000000000000000000000000000000000000000000000000000600052604160045260246000fd5b604051908082528060200260200182016040528015611a1f5781602001602082028036833780820191505090505b5090508281600081518110611a5d577f4e487b7100000000000000000000000000000000000000000000000000000000600052603260045260246000fd5b60200260200101818152505080915050919050565b611a918473ffffffffffffffffffffffffffffffffffffffff16611c59565b15611c51578373ffffffffffffffffffffffffffffffffffffffff1663f23a6e6187878686866040518663ffffffff1660e01b8152600401611ad79594939291906125b3565b602060405180830381600087803b158015611af157600080fd5b505af1925050508015611b2257506040513d601f19601f82011682018060405250810190611b1f919061214e565b60015b611bc857611b2e612c91565b806308c379a01415611b8b5750611b43613175565b80611b4e5750611b8d565b806040517f08c379a0000000000000000000000000000000000000000000000000000000008152600401611b829190612681565b60405180910390fd5b505b6040517f08c379a0000000000000000000000000000000000000000000000000000000008152600401611bbf906126a3565b60405180910390fd5b63f23a6e6160e01b7bffffffffffffffffffffffffffffffffffffffffffffffffffffffff1916817bffffffffffffffffffffffffffffffffffffffffffffffffffffffff191614611c4f576040517f08c379a0000000000000000000000000000000000000000000000000000000008152600401611c46906126c3565b60405180910390fd5b505b505050505050565b6000808273ffffffffffffffffffffffffffffffffffffffff163b119050919050565b6000611c8f611c8a8461290c565b6128e7565b90508083825260208201905082856020860282011115611cae57600080fd5b60005b85811015611cde5781611cc48882611d92565b845260208401935060208301925050600181019050611cb1565b5050509392505050565b6000611cfb611cf684612938565b6128e7565b90508083825260208201905082856020860282011115611d1a57600080fd5b60005b85811015611d4a5781611d308882611e79565b845260208401935060208301925050600181019050611d1d565b5050509392505050565b6000611d67611d6284612964565b6128e7565b905082815260208101848484011115611d7f57600080fd5b611d8a848285612b16565b509392505050565b600081359050611da18161320b565b92915050565b600081359050611db681613222565b92915050565b600082601f830112611dcd57600080fd5b8135611ddd848260208601611c7c565b91505092915050565b600082601f830112611df757600080fd5b8135611e07848260208601611ce8565b91505092915050565b600081359050611e1f81613239565b92915050565b600081359050611e3481613250565b92915050565b600081519050611e4981613250565b92915050565b600082601f830112611e6057600080fd5b8135611e70848260208601611d54565b91505092915050565b600081359050611e8881613267565b92915050565b600060208284031215611ea057600080fd5b6000611eae84828501611d92565b91505092915050565b60008060408385031215611eca57600080fd5b6000611ed885828601611d92565b9250506020611ee985828601611d92565b9150509250929050565b600080600080600060a08688031215611f0b57600080fd5b6000611f1988828901611d92565b9550506020611f2a88828901611d92565b945050604086013567ffffffffffffffff811115611f4757600080fd5b611f5388828901611de6565b935050606086013567ffffffffffffffff811115611f7057600080fd5b611f7c88828901611de6565b925050608086013567ffffffffffffffff811115611f9957600080fd5b611fa588828901611e4f565b9150509295509295909350565b600080600080600060a08688031215611fca57600080fd5b6000611fd888828901611d92565b9550506020611fe988828901611d92565b9450506040611ffa88828901611e79565b935050606061200b88828901611e79565b925050608086013567ffffffffffffffff81111561202857600080fd5b61203488828901611e4f565b9150509295509295909350565b6000806040838503121561205457600080fd5b600061206285828601611d92565b925050602061207385828601611e10565b9150509250929050565b6000806040838503121561209057600080fd5b600061209e85828601611d92565b92505060206120af85828601611e79565b9150509250929050565b600080604083850312156120cc57600080fd5b600083013567ffffffffffffffff8111156120e657600080fd5b6120f285828601611dbc565b925050602083013567ffffffffffffffff81111561210f57600080fd5b61211b85828601611de6565b9150509250929050565b60006020828403121561213757600080fd5b600061214584828501611e25565b91505092915050565b60006020828403121561216057600080fd5b600061216e84828501611e3a565b91505092915050565b60006020828403121561218957600080fd5b600061219784828501611e79565b91505092915050565b600080604083850312156121b357600080fd5b60006121c185828601611e79565b92505060206121d285828601611da7565b9150509250929050565b60006121e88383612512565b60208301905092915050565b6121fd81612a90565b82525050565b600061220e826129a5565b61221881856129d3565b935061222383612995565b8060005b8381101561225457815161223b88826121dc565b9750612246836129c6565b925050600181019050612227565b5085935050505092915050565b61226a81612ab4565b82525050565b600061227b826129b0565b61228581856129e4565b9350612295818560208601612b25565b61229e81612cb3565b840191505092915050565b60006122b4826129bb565b6122be81856129f5565b93506122ce818560208601612b25565b6122d781612cb3565b840191505092915050565b60006122ef6034836129f5565b91506122fa82612cd1565b604082019050919050565b60006123126028836129f5565b915061231d82612d20565b604082019050919050565b60006123356023836129f5565b915061234082612d6f565b604082019050919050565b6000612358602b836129f5565b915061236382612dbe565b604082019050919050565b600061237b6011836129f5565b915061238682612e0d565b602082019050919050565b600061239e6026836129f5565b91506123a982612e36565b604082019050919050565b60006123c16029836129f5565b91506123cc82612e85565b604082019050919050565b60006123e46025836129f5565b91506123ef82612ed4565b604082019050919050565b60006124076032836129f5565b915061241282612f23565b604082019050919050565b600061242a602a836129f5565b915061243582612f72565b604082019050919050565b600061244d6020836129f5565b915061245882612fc1565b602082019050919050565b60006124706023836129f5565b915061247b82612fea565b604082019050919050565b60006124936029836129f5565b915061249e82613039565b604082019050919050565b60006124b66029836129f5565b91506124c182613088565b604082019050919050565b60006124d96028836129f5565b91506124e4826130d7565b604082019050919050565b60006124fc6021836129f5565b915061250782613126565b604082019050919050565b61251b81612b0c565b82525050565b61252a81612b0c565b82525050565b600060208201905061254560008301846121f4565b92915050565b600060a08201905061256060008301886121f4565b61256d60208301876121f4565b818103604083015261257f8186612203565b905081810360608301526125938185612203565b905081810360808301526125a78184612270565b90509695505050505050565b600060a0820190506125c860008301886121f4565b6125d560208301876121f4565b6125e26040830186612521565b6125ef6060830185612521565b81810360808301526126018184612270565b90509695505050505050565b600060208201905081810360008301526126278184612203565b905092915050565b600060408201905081810360008301526126498185612203565b9050818103602083015261265d8184612203565b90509392505050565b600060208201905061267b6000830184612261565b92915050565b6000602082019050818103600083015261269b81846122a9565b905092915050565b600060208201905081810360008301526126bc816122e2565b9050919050565b600060208201905081810360008301526126dc81612305565b9050919050565b600060208201905081810360008301526126fc81612328565b9050919050565b6000602082019050818103600083015261271c8161234b565b9050919050565b6000602082019050818103600083015261273c8161236e565b9050919050565b6000602082019050818103600083015261275c81612391565b9050919050565b6000602082019050818103600083015261277c816123b4565b9050919050565b6000602082019050818103600083015261279c816123d7565b9050919050565b600060208201905081810360008301526127bc816123fa565b9050919050565b600060208201905081810360008301526127dc8161241d565b9050919050565b600060208201905081810360008301526127fc81612440565b9050919050565b6000602082019050818103600083015261281c81612463565b9050919050565b6000602082019050818103600083015261283c81612486565b9050919050565b6000602082019050818103600083015261285c816124a9565b9050919050565b6000602082019050818103600083015261287c816124cc565b9050919050565b6000602082019050818103600083015261289c816124ef565b9050919050565b60006020820190506128b86000830184612521565b92915050565b60006040820190506128d36000830185612521565b6128e06020830184612521565b9392505050565b60006128f1612902565b90506128fd8282612b8a565b919050565b6000604051905090565b600067ffffffffffffffff82111561292757612926612c62565b5b602082029050602081019050919050565b600067ffffffffffffffff82111561295357612952612c62565b5b602082029050602081019050919050565b600067ffffffffffffffff82111561297f5761297e612c62565b5b61298882612cb3565b9050602081019050919050565b6000819050602082019050919050565b600081519050919050565b600081519050919050565b600081519050919050565b6000602082019050919050565b600082825260208201905092915050565b600082825260208201905092915050565b600082825260208201905092915050565b6000612a1182612b0c565b9150612a1c83612b0c565b9250827fffffffffffffffffffffffffffffffffffffffffffffffffffffffffffffffff03821115612a5157612a50612c04565b5b828201905092915050565b6000612a6782612b0c565b9150612a7283612b0c565b925082821015612a8557612a84612c04565b5b828203905092915050565b6000612a9b82612aec565b9050919050565b6000612aad82612aec565b9050919050565b60008115159050919050565b60007fffffffff0000000000000000000000000000000000000000000000000000000082169050919050565b600073ffffffffffffffffffffffffffffffffffffffff82169050919050565b6000819050919050565b82818337600083830152505050565b60005b83811015612b43578082015181840152602081019050612b28565b83811115612b52576000848401525b50505050565b60006002820490506001821680612b7057607f821691505b60208210811415612b8457612b83612c33565b5b50919050565b612b9382612cb3565b810181811067ffffffffffffffff82111715612bb257612bb1612c62565b5b80604052505050565b6000612bc682612b0c565b91507fffffffffffffffffffffffffffffffffffffffffffffffffffffffffffffffff821415612bf957612bf8612c04565b5b600182019050919050565b7f4e487b7100000000000000000000000000000000000000000000000000000000600052601160045260246000fd5b7f4e487b7100000000000000000000000000000000000000000000000000000000600052602260045260246000fd5b7f4e487b7100000000000000000000000000000000000000000000000000000000600052604160045260246000fd5b600060033d1115612cb05760046000803e612cad600051612cc4565b90505b90565b6000601f19601f8301169050919050565b60008160e01c9050919050565b7f455243313135353a207472616e7366657220746f206e6f6e204552433131353560008201527f526563656976657220696d706c656d656e746572000000000000000000000000602082015250565b7f455243313135353a204552433131353552656365697665722072656a6563746560008201527f6420746f6b656e73000000000000000000000000000000000000000000000000602082015250565b7f41647265737320616c726561647920686173207374616e64617264207061636b60008201527f6567650000000000000000000000000000000000000000000000000000000000602082015250565b7f455243313135353a2062616c616e636520717565727920666f7220746865207a60008201527f65726f2061646472657373000000000000000000000000000000000000000000602082015250565b7f696e737566666963656e742066756e6473000000000000000000000000000000600082015250565b7f4f776e61626c653a206e6577206f776e657220697320746865207a65726f206160008201527f6464726573730000000000000000000000000000000000000000000000000000602082015250565b7f455243313135353a2063616c6c6572206973206e6f74206f776e6572206e6f7260008201527f20617070726f7665640000000000000000000000000000000000000000000000602082015250565b7f455243313135353a207472616e7366657220746f20746865207a65726f20616460008201527f6472657373000000000000000000000000000000000000000000000000000000602082015250565b7f455243313135353a207472616e736665722063616c6c6572206973206e6f742060008201527f6f776e6572206e6f7220617070726f7665640000000000000000000000000000602082015250565b7f455243313135353a20696e73756666696369656e742062616c616e636520666f60008201527f72207472616e7366657200000000000000000000000000000000000000000000602082015250565b7f4f776e61626c653a2063616c6c6572206973206e6f7420746865206f776e6572600082015250565b7f416c6c20736c6f747320666f722057686974654c6973742061726520636c616960008201527f6d65640000000000000000000000000000000000000000000000000000000000602082015250565b7f455243313135353a2073657474696e6720617070726f76616c2073746174757360008201527f20666f722073656c660000000000000000000000000000000000000000000000602082015250565b7f455243313135353a206163636f756e747320616e6420696473206c656e67746860008201527f206d69736d617463680000000000000000000000000000000000000000000000602082015250565b7f455243313135353a2069647320616e6420616d6f756e7473206c656e6774682060008201527f6d69736d61746368000000000000000000000000000000000000000000000000602082015250565b7f455243313135353a206d696e7420746f20746865207a65726f2061646472657360008201527f7300000000000000000000000000000000000000000000000000000000000000602082015250565b600060443d101561318557613208565b61318d612902565b60043d036004823e80513d602482011167ffffffffffffffff821117156131b5575050613208565b808201805167ffffffffffffffff8111156131d35750505050613208565b80602083010160043d0385018111156131f0575050505050613208565b6131ff82602001850186612b8a565b82955050505050505b90565b61321481612a90565b811461321f57600080fd5b50565b61322b81612aa2565b811461323657600080fd5b50565b61324281612ab4565b811461324d57600080fd5b50565b61325981612ac0565b811461326457600080fd5b50565b61327081612b0c565b811461327b57600080fd5b5056fea26469706673582212207be6fe1314ae30f6abfbc4ed053c47a927b4feed0b9dcad551bed455e087d06b64736f6c63430008010033697066733a2f2f516d54326e3935454d327275556d31704b39364b544d3642686a763766594233386f44466d5638367a617a717173",
  "linkReferences": {},
  "deployedLinkReferences": {}
}